:0400000007EF00F016
:0A0008005382C9ED08F03DEF09F046
:10080000000102030405060708092A002B5465634A
:100810006C613A20004164633A200050756C733A71
:1008200000002B6822EF05F00D50D8B41AEF04F049
:100830001CEF04F03FEF05F0000E0D6E47684668B0
:100840002B681E0E0C6E010E0B6E3FEF05F00C5068
:10085000D8A42DEF04F02FEF04F03FEF05F0020EC7
:100860000B6E3FEF05F081B838EF04F03AEF04F07B
:100870003EEF04F0000E476E5FEF04F081BA43EFE5
:1008800004F045EF04F049EF04F0010E476E5FEF0E
:1008900004F081BC4EEF04F050EF04F054EF04F08C
:1008A000020E476E5FEF04F081BE59EF04F05BEF7C
:1008B00004F05FEF04F0030E476E5FEF04F047288B
:1008C000D8A465EF04F067EF04F06BEF04F0000EBE
:1008D0000B6E3FEF05F093808A9081A872EF04F0D1
:1008E00074EF04F08DEF04F081AA79EF04F07BEF50
:1008F00004F08DEF04F081AC80EF04F082EF04F09F
:100900008DEF04F081AE87EF04F089EF04F08DEFF6
:1009100004F0000E466ECFEF04F093828A9281A815
:1009200094EF04F096EF04F0AFEF04F081AA9BEF90
:1009300004F09DEF04F0AFEF04F081ACA2EF04F0FF
:10094000A4EF04F0AFEF04F081AEA9EF04F0ABEF39
:1009500004F0AFEF04F0010E466ECFEF04F0938485
:100960008A9481A8B6EF04F0B8EF04F0CFEF04F05A
:1009700081AABDEF04F0BFEF04F0CFEF04F081AC2B
:10098000C4EF04F0C6EF04F0CFEF04F081AECBEF7C
:1009900004F0CDEF04F0CFEF04F0020E466E93901A
:1009A000939293944628D8A4D8EF04F0DAEF04F099
:1009B000DCEF04F067EF04F0320E0C6E030E0B6EEA
:1009C0004750030D010E296E080E2A6EF35029269A
:1009D000F4502A2246502926000E2A2229C0F6FF6A
:1009E0002AC0F7FF0800F5CF2BF03FEF05F081A8F4
:1009F000FCEF04F0FEEF04F03FEF05F081AA03EFF7
:100A000005F005EF05F03FEF05F081AC0AEF05F0CA
:100A10000CEF05F03FEF05F081AE11EF05F013EF9D
:100A200005F03FEF05F00C50D8A419EF05F01BEFCF
:100A300005F03FEF05F067EF04F0476846682B6864
:100A400067EF04F00B50296E2A6A2A50000AD8B4C6
:100A50002CEF05F01DEF05F02950000AD8B414EF73
:100A600004F0010AD8B427EF04F0030AD8B433EF36
:100A700004F0010AD8B4F7EF04F01DEF05F02B5095
:100A8000120075EC09F09EEC09F0F294F28ED58E0E
:100A90004AEC06F0AAEC09F00D0E2B6E080E2C6E37
:100AA00092EC08F0400EFAEC08F0150E2B6E080ED2
:100AB0002C6E92EC08F04A0EFAEC08F01B0E2B6E2E
:100AC000080E2C6E92EC08F011EC04F0256E25282F
:100AD000D8B46DEF05F06FEF05F076EF05F0070E77
:100AE000FAEC08F02550300F1CEC09F025EC07F06B
:100AF000246E2404D8A47FEF05F081EF05F087EF82
:100B000005F04F0EFAEC08F0310E1CEC09F0020E65
:100B10002418D8A48EEF05F090EF05F096EF05F0BD
:100B20004F0EFAEC08F0320E1CEC09F0030E2418FC
:100B3000D8A49DEF05F09FEF05F0A5EF05F04F0E4F
:100B4000FAEC08F0330E1CEC09F0040E2418D8A4BB
:100B5000ACEF05F0AEEF05F0B4EF05F04F0EFAEC98
:100B600008F0340E1CEC09F007500810D8A4BBEFB5
:100B700005F0BDEF05F0EBEF05F0010E086EF40E89
:100B8000076E84B0C6EF05F0C9EF05F0010ECAEF9D
:100B900005F0000EFF0A436E84504318FE0B431805
:100BA000846E065007E1090E055CD8B0DAEF05F057
:100BB000DCEF05F0E0EF05F0054A062AE4EF05F06A
:100BC000000E066E000E056E0F0EFAEC08F00550D2
:100BD000300F1CEC09F02350D8A4F1EF05F0F3EF2F
:100BE00005F064EF05F0140E236E5AEC09F01F6E49
:100BF0001FC02FF0306A000E326E640E316ED8ECDA
:100C000007F02F50216E000E2C6E640E2B6E1FC04D
:100C100029F02A6A3AEC08F029C02FF02AC030F0F7
:100C2000000E326E0A0E316ED8EC07F02F50226E95
:100C3000000E2C6E640E2B6E1FC029F02A6A3AEC4F
:100C400008F029C044F02AC045F044C029F045C04E
:100C50002AF0000E2C6E0A0E2B6E3AEC08F029508A
:100C6000206E450EFAEC08F02150300F1CEC09F014
:100C7000460EFAEC08F02250300F1CEC09F0470E3B
:100C8000FAEC08F02050300F1CEC09F064EF05F08E
:100C900007EF00F00F0E95169692929A9694000E1A
:100CA000526E1E0E516E000E2B6E000E2C6E000E3C
:100CB0002D6E000E2E6E010E2B26000E2C222D22E4
:100CC0002E222E500DE1A00E2B5C860E2C58010E0C
:100CD0002D58D8A06EEF06F070EF06F05BEF06F02F
:100CE000020ED0EC09F0000E526E010E516E000E95
:100CF0002F6E000E306E000E316E000E326E010E41
:100D00002F26000E30223122322232500DE1A00E69
:100D10002F5C860E3058010E3158D8A092EF06F0A5
:100D200094EF06F07FEF06F0280ED0EC09F0000EED
:100D3000526E010E516E000E336E000E346E000EB8
:100D4000356E000E366E010E3326000E342235222B
:100D5000362236500DE1A00E335C860E3458010E5B
:100D60003558D8A0B6EF06F0B8EF06F0A3EF06F0BE
:100D70000C0ED0EC09F0000E526E010E516E000EFA
:100D8000376E000E386E000E396E000E3A6E010E90
:100D90003726000E382239223A223A500DE1A00EB1
:100DA000375C860E3858010E3958D8A0DAEF06F0B5
:100DB000DCEF06F0C7EF06F0010ED0EC09F0000EF4
:100DC000526E010E516E000E3B6E000E3C6E000E18
:100DD0003D6E000E3E6E010E3B26000E3C223D2273
:100DE0003E223E500DE1A00E3B5C860E3C58010EAB
:100DF0003D58D8A0FEEF06F000EF07F0EBEF06F04D
:100E0000060ED0EC09F0000E526E010E516E000E6F
:100E10003F6E000E406E000E416E000E426E010EDF
:100E20003F26000E40224122422242500DE1A00EF8
:100E30003F5C860E4058010E4158D8A022EF07F0C3
:100E400024EF07F00FEF07F01200000E2B6EB9EF42
:100E500007F082A82EEF07F030EF07F045EF07F01C
:100E600082AA35EF07F037EF07F045EF07F082ACC5
:100E70003CEF07F03EEF07F045EF07F082BE43EF8F
:100E800007F045EF07F0D6EF07F0010E1E6E280EB3
:100E9000276ED6EF07F02750D8A451EF07F053EF95
:100EA00007F0D6EF07F0020E1E6ED6EF07F082BEF7
:100EB0005CEF07F05EEF07F062EF07F0040E2B6EB9
:100EC00085EF07F082BC67EF07F069EF07F06DEF81
:100ED00007F0030E2B6E85EF07F082BA72EF07F072
:100EE00074EF07F078EF07F0020E2B6E85EF07F036
:100EF00082B87DEF07F07FEF07F083EF07F0010E78
:100F00002B6E85EF07F0000E2B6E280E276E030E5A
:100F10001E6ED6EF07F082A890EF07F092EF07F071
:100F2000D6EF07F082AA97EF07F099EF07F0D6EF18
:100F300007F082AC9EEF07F0A0EF07F0D6EF07F0C6
:100F400082AEA5EF07F0A7EF07F0D6EF07F0275026
:100F5000D8A4ADEF07F0AFEF07F0D6EF07F0000E23
:100F60001E6ED6EF07F0000E2B6E000E1E6ED6EF33
:100F700007F01E50296E2A6A2A50000AD8B4C3EF1F
:100F800007F0B3EF07F02950000AD8B429EF07F0B3
:100F9000010AD8B44BEF07F0030AD8B457EF07F0B3
:100FA000010AD8B48BEF07F0B3EF07F02B50120013
:100FB000000E346E32BEE1EF07F0DFEF07F0E7EF2F
:100FC00007F0316C321ED8B0322A010E346E30BEBA
:100FD000EEEF07F0ECEF07F0F4EF07F02F6C301EA8
:100FE000D8B0302A010E341A000E366E000E356E5F
:100FF00031503210D8B4FFEF07F001EF08F029EFBD
:1010000008F0010E336E09EF08F0D8903136323611
:10101000332A32AE0EEF08F010EF08F005EF08F0BB
:10102000D8903536363631502F5C32503058D8A0F3
:101030001CEF08F01EEF08F023EF08F031502F5E90
:101040003250305A3580D89032323132332E10EF50
:1010500008F03450D8B42FEF08F031EF08F035EF36
:1010600008F0356C361ED8B0362A35C02FF036C0A1
:1010700030F01200000E2E6E2ABE43EF08F041EF52
:1010800008F049EF08F0296C2A1ED8B02A2A010E70
:101090002E6E2CBE50EF08F04EEF08F054EF08F023
:1010A0002B6C2C1ED8B02C2A2B502C10D8B45BEFF4
:1010B00008F05DEF08F081EF08F0010E2D6E65EF8E
:1010C00008F0D8902B362C362D2A2CAE6AEF08F07B
:1010D0006CEF08F061EF08F02B50295C2C502A5877
:1010E000D8A075EF08F077EF08F07BEF08F02B50F1
:1010F000295E2C502A5AD8902C322B322D2E6CEF90
:1011000008F02E50D8B487EF08F089EF08F08DEF83
:1011100008F0296C2A1ED8B02A2A29C029F02AC032
:101120002AF01200BAEF08F02BC0F6FF2CC0F7FF30
:101130000800F550C9EC09F0000E2D6E000E2E6E61
:10114000000E2F6E000E306E010E2D26000E2E2288
:101150002F22302230502F100BE1E80E2D5C030EB1
:101160002E58D8A0B6EF08F0B8EF08F0A4EF08F0BA
:101170002B4A2C2A2BC0F6FF2CC0F7FF0800F55095
:101180000009D8A4C6EF08F0C8EF08F094EF08F003
:1011900012000600F2A4CFEF08F0D1EF08F0EEEF56
:1011A00008F0F294D10ED66ED768B5EC09F0BFEC1A
:1011B00009F007500810D8B4E0EF08F0E2EF08F0AB
:1011C000E5EF08F00706D8A008062350D8B4EBEFE7
:1011D00008F0EDEF08F0EEEF08F02306F2A0F3EFD1
:1011E00008F0F5EF08F0F8EF08F0D7EC09F0F2900E
:1011F000539211002B6E2B8E2B50D0EC09F0000E69
:101200002C6E000E2D6E000E2E6E000E2F6E010E37
:101210002C26000E2D222E222F222F502E100BE1D5
:10122000100E2C5C270E2D58D8A019EF09F01BEFDB
:1012300009F007EF09F012002B6E2B50C9EC09F0F2
:10124000000E2C6E000E2D6E000E2E6E000E2F6EF8
:10125000010E2C26000E2D222E222F222F502E1072
:101260000BE1E80E2C5C030E2D58D8A03AEF09F0E4
:101270003CEF09F028EF09F01200BA0EF66E130EDB
:10128000F76E000EF86E00EE46F010EE0BF009005F
:10129000F5CFEEFFE550E150FAE100EE01F0280E47
:1012A000EE6AE806FDE153905392000EF86E0001DD
:1012B00041EF05F080CF29F092CF2AF092800E0EF8
:1012C000C16E2D0EC06EC280C282C2B26AEF09F03A
:1012D0006CEF09F065EF09F0C2900F0EC16E29C0E6
:1012E00089FF2AC092FFC4501200000E896E000EC2
:1012F0008A6E000E8B6E000E8C6E000E8D6EF00EE0
:10130000956E070EB46E0F0EC16EC00E926E000E7B
:10131000966EF00E936E948E948C1200296E0F0EC2
:101320008C1684842950F00B8C1284940F0E8C162A
:1013300084842938F00B8C1284941200D59ED58CAD
:10134000D59AD596D580D582D584D10ED66ED7685C
:10135000F28A1200000E8A6E000E816EF00E936EFD
:10136000F19EF180F290F28612000C50D8B4BBEFDF
:1013700009F0BDEF09F0BEEF09F00C06120027508E
:10138000D8B4C5EF09F0C7EF09F0C8EF09F0270698
:1013900012002A6E8482809A2A508EEC09F0120084
:1013A0002A6E8492809A2A508EEC09F012008150A5
:1013B00000F0010E0D6E00F01200FFFF0A20FF0189
:0513C000040101E80337
:020000040020DA
:08000000FFFFFFFFFFFFFFFF00
:020000040030CA
:0E000000240E3F1EFF8181FF0FC00FE00F4056
:00000001FF
